{
  "_format": "hh-sol-artifact-1",
  "contractName": "SimpleToken",
  "sourceName": "contracts/SimpleToken.sol",
  "abi": [
    {
      "inputs": [
        {
          "internalType": "string",
          "name": "name",
          "type": "string"
        },
        {
          "internalType": "string",
          "name": "symbol",
          "type": "string"
        },
        {
          "internalType": "uint8",
          "name": "decimals_",
          "type": "uint8"
        },
        {
          "internalType": "uint256",
          "name": "initial_supply",
          "type": "uint256"
        }
      ],
      "stateMutability": "nonpayable",
      "type": "constructor"
    },
    {
      "anonymous": false,
      "inputs": [
        {
          "indexed": true,
          "internalType": "address",
          "name": "owner",
          "type": "address"
        },
        {
          "indexed": true,
          "internalType": "address",
          "name": "spender",
          "type": "address"
        },
        {
          "indexed": false,
          "internalType": "uint256",
          "name": "value",
          "type": "uint256"
        }
      ],
      "name": "Approval",
      "type": "event"
    },
    {
      "anonymous": false,
      "inputs": [
        {
          "indexed": false,
          "internalType": "address",
          "name": "account",
          "type": "address"
        }
      ],
      "name": "Paused",
      "type": "event"
    },
    {
      "anonymous": false,
      "inputs": [
        {
          "indexed": true,
          "internalType": "bytes32",
          "name": "role",
          "type": "bytes32"
        },
        {
          "indexed": true,
          "internalType": "bytes32",
          "name": "previousAdminRole",
          "type": "bytes32"
        },
        {
          "indexed": true,
          "internalType": "bytes32",
          "name": "newAdminRole",
          "type": "bytes32"
        }
      ],
      "name": "RoleAdminChanged",
      "type": "event"
    },
    {
      "anonymous": false,
      "inputs": [
        {
          "indexed": true,
          "internalType": "bytes32",
          "name": "role",
          "type": "bytes32"
        },
        {
          "indexed": true,
          "internalType": "address",
          "name": "account",
          "type": "address"
        },
        {
          "indexed": true,
          "internalType": "address",
          "name": "sender",
          "type": "address"
        }
      ],
      "name": "RoleGranted",
      "type": "event"
    },
    {
      "anonymous": false,
      "inputs": [
        {
          "indexed": true,
          "internalType": "bytes32",
          "name": "role",
          "type": "bytes32"
        },
        {
          "indexed": true,
          "internalType": "address",
          "name": "account",
          "type": "address"
        },
        {
          "indexed": true,
          "internalType": "address",
          "name": "sender",
          "type": "address"
        }
      ],
      "name": "RoleRevoked",
      "type": "event"
    },
    {
      "anonymous": false,
      "inputs": [
        {
          "indexed": true,
          "internalType": "address",
          "name": "from",
          "type": "address"
        },
        {
          "indexed": true,
          "internalType": "address",
          "name": "to",
          "type": "address"
        },
        {
          "indexed": false,
          "internalType": "uint256",
          "name": "value",
          "type": "uint256"
        }
      ],
      "name": "Transfer",
      "type": "event"
    },
    {
      "anonymous": false,
      "inputs": [
        {
          "indexed": false,
          "internalType": "address",
          "name": "account",
          "type": "address"
        }
      ],
      "name": "Unpaused",
      "type": "event"
    },
    {
      "inputs": [],
      "name": "DEFAULT_ADMIN_ROLE",
      "outputs": [
        {
          "internalType": "bytes32",
          "name": "",
          "type": "bytes32"
        }
      ],
      "stateMutability": "view",
      "type": "function"
    },
    {
      "inputs": [],
      "name": "INITIAL_SUPPLY",
      "outputs": [
        {
          "internalType": "uint256",
          "name": "",
          "type": "uint256"
        }
      ],
      "stateMutability": "view",
      "type": "function"
    },
    {
      "inputs": [],
      "name": "MINTER_ROLE",
      "outputs": [
        {
          "internalType": "bytes32",
          "name": "",
          "type": "bytes32"
        }
      ],
      "stateMutability": "view",
      "type": "function"
    },
    {
      "inputs": [],
      "name": "PAUSER_ROLE",
      "outputs": [
        {
          "internalType": "bytes32",
          "name": "",
          "type": "bytes32"
        }
      ],
      "stateMutability": "view",
      "type": "function"
    },
    {
      "inputs": [
        {
          "internalType": "address",
          "name": "owner",
          "type": "address"
        },
        {
          "internalType": "address",
          "name": "spender",
          "type": "address"
        }
      ],
      "name": "allowance",
      "outputs": [
        {
          "internalType": "uint256",
          "name": "",
          "type": "uint256"
        }
      ],
      "stateMutability": "view",
      "type": "function"
    },
    {
      "inputs": [
        {
          "internalType": "address",
          "name": "spender",
          "type": "address"
        },
        {
          "internalType": "uint256",
          "name": "amount",
          "type": "uint256"
        }
      ],
      "name": "approve",
      "outputs": [
        {
          "internalType": "bool",
          "name": "",
          "type": "bool"
        }
      ],
      "stateMutability": "nonpayable",
      "type": "function"
    },
    {
      "inputs": [
        {
          "internalType": "address",
          "name": "account",
          "type": "address"
        }
      ],
      "name": "balanceOf",
      "outputs": [
        {
          "internalType": "uint256",
          "name": "",
          "type": "uint256"
        }
      ],
      "stateMutability": "view",
      "type": "function"
    },
    {
      "inputs": [
        {
          "internalType": "uint256",
          "name": "amount",
          "type": "uint256"
        }
      ],
      "name": "burn",
      "outputs": [],
      "stateMutability": "nonpayable",
      "type": "function"
    },
    {
      "inputs": [
        {
          "internalType": "address",
          "name": "account",
          "type": "address"
        },
        {
          "internalType": "uint256",
          "name": "amount",
          "type": "uint256"
        }
      ],
      "name": "burnFrom",
      "outputs": [],
      "stateMutability": "nonpayable",
      "type": "function"
    },
    {
      "inputs": [],
      "name": "decimals",
      "outputs": [
        {
          "internalType": "uint8",
          "name": "",
          "type": "uint8"
        }
      ],
      "stateMutability": "view",
      "type": "function"
    },
    {
      "inputs": [
        {
          "internalType": "address",
          "name": "spender",
          "type": "address"
        },
        {
          "internalType": "uint256",
          "name": "subtractedValue",
          "type": "uint256"
        }
      ],
      "name": "decreaseAllowance",
      "outputs": [
        {
          "internalType": "bool",
          "name": "",
          "type": "bool"
        }
      ],
      "stateMutability": "nonpayable",
      "type": "function"
    },
    {
      "inputs": [
        {
          "internalType": "bytes32",
          "name": "role",
          "type": "bytes32"
        }
      ],
      "name": "getRoleAdmin",
      "outputs": [
        {
          "internalType": "bytes32",
          "name": "",
          "type": "bytes32"
        }
      ],
      "stateMutability": "view",
      "type": "function"
    },
    {
      "inputs": [
        {
          "internalType": "bytes32",
          "name": "role",
          "type": "bytes32"
        },
        {
          "internalType": "uint256",
          "name": "index",
          "type": "uint256"
        }
      ],
      "name": "getRoleMember",
      "outputs": [
        {
          "internalType": "address",
          "name": "",
          "type": "address"
        }
      ],
      "stateMutability": "view",
      "type": "function"
    },
    {
      "inputs": [
        {
          "internalType": "bytes32",
          "name": "role",
          "type": "bytes32"
        }
      ],
      "name": "getRoleMemberCount",
      "outputs": [
        {
          "internalType": "uint256",
          "name": "",
          "type": "uint256"
        }
      ],
      "stateMutability": "view",
      "type": "function"
    },
    {
      "inputs": [
        {
          "internalType": "bytes32",
          "name": "role",
          "type": "bytes32"
        },
        {
          "internalType": "address",
          "name": "account",
          "type": "address"
        }
      ],
      "name": "grantRole",
      "outputs": [],
      "stateMutability": "nonpayable",
      "type": "function"
    },
    {
      "inputs": [
        {
          "internalType": "bytes32",
          "name": "role",
          "type": "bytes32"
        },
        {
          "internalType": "address",
          "name": "account",
          "type": "address"
        }
      ],
      "name": "hasRole",
      "outputs": [
        {
          "internalType": "bool",
          "name": "",
          "type": "bool"
        }
      ],
      "stateMutability": "view",
      "type": "function"
    },
    {
      "inputs": [
        {
          "internalType": "address",
          "name": "spender",
          "type": "address"
        },
        {
          "internalType": "uint256",
          "name": "addedValue",
          "type": "uint256"
        }
      ],
      "name": "increaseAllowance",
      "outputs": [
        {
          "internalType": "bool",
          "name": "",
          "type": "bool"
        }
      ],
      "stateMutability": "nonpayable",
      "type": "function"
    },
    {
      "inputs": [
        {
          "internalType": "address",
          "name": "to",
          "type": "address"
        },
        {
          "internalType": "uint256",
          "name": "amount",
          "type": "uint256"
        }
      ],
      "name": "mint",
      "outputs": [],
      "stateMutability": "nonpayable",
      "type": "function"
    },
    {
      "inputs": [],
      "name": "name",
      "outputs": [
        {
          "internalType": "string",
          "name": "",
          "type": "string"
        }
      ],
      "stateMutability": "view",
      "type": "function"
    },
    {
      "inputs": [],
      "name": "pause",
      "outputs": [],
      "stateMutability": "nonpayable",
      "type": "function"
    },
    {
      "inputs": [],
      "name": "paused",
      "outputs": [
        {
          "internalType": "bool",
          "name": "",
          "type": "bool"
        }
      ],
      "stateMutability": "view",
      "type": "function"
    },
    {
      "inputs": [
        {
          "internalType": "bytes32",
          "name": "role",
          "type": "bytes32"
        },
        {
          "internalType": "address",
          "name": "account",
          "type": "address"
        }
      ],
      "name": "renounceRole",
      "outputs": [],
      "stateMutability": "nonpayable",
      "type": "function"
    },
    {
      "inputs": [
        {
          "internalType": "bytes32",
          "name": "role",
          "type": "bytes32"
        },
        {
          "internalType": "address",
          "name": "account",
          "type": "address"
        }
      ],
      "name": "revokeRole",
      "outputs": [],
      "stateMutability": "nonpayable",
      "type": "function"
    },
    {
      "inputs": [
        {
          "internalType": "bytes4",
          "name": "interfaceId",
          "type": "bytes4"
        }
      ],
      "name": "supportsInterface",
      "outputs": [
        {
          "internalType": "bool",
          "name": "",
          "type": "bool"
        }
      ],
      "stateMutability": "view",
      "type": "function"
    },
    {
      "inputs": [],
      "name": "symbol",
      "outputs": [
        {
          "internalType": "string",
          "name": "",
          "type": "string"
        }
      ],
      "stateMutability": "view",
      "type": "function"
    },
    {
      "inputs": [],
      "name": "totalSupply",
      "outputs": [
        {
          "internalType": "uint256",
          "name": "",
          "type": "uint256"
        }
      ],
      "stateMutability": "view",
      "type": "function"
    },
    {
      "inputs": [
        {
          "internalType": "address",
          "name": "to",
          "type": "address"
        },
        {
          "internalType": "uint256",
          "name": "amount",
          "type": "uint256"
        }
      ],
      "name": "transfer",
      "outputs": [
        {
          "internalType": "bool",
          "name": "",
          "type": "bool"
        }
      ],
      "stateMutability": "nonpayable",
      "type": "function"
    },
    {
      "inputs": [
        {
          "internalType": "address",
          "name": "from",
          "type": "address"
        },
        {
          "internalType": "address",
          "name": "to",
          "type": "address"
        },
        {
          "internalType": "uint256",
          "name": "amount",
          "type": "uint256"
        }
      ],
      "name": "transferFrom",
      "outputs": [
        {
          "internalType": "bool",
          "name": "",
          "type": "bool"
        }
      ],
      "stateMutability": "nonpayable",
      "type": "function"
    },
    {
      "inputs": [],
      "name": "unpause",
      "outputs": [],
      "stateMutability": "nonpayable",
      "type": "function"
    }
  ],
  "bytecode": "0x60806040523480156200001157600080fd5b50604051620040da380380620040da833981810160405281019062000037919062000840565b8383818181600590816200004c919062000b31565b5080600690816200005e919062000b31565b5050506000600760006101000a81548160ff021916908315150217905550620000a06000801b620000946200018260201b60201c565b6200018a60201b60201c565b620000e17f9f2df0fed2c77648de5860a4cc508cd0818c85b8b8a1ab4ceeef8d981c8956a6620000d56200018260201b60201c565b6200018a60201b60201c565b620001227f65d7a28e3265b37a6474929f336521b332c1681b933f6cb9f3376673440d862a620001166200018260201b60201c565b6200018a60201b60201c565b505081600760016101000a81548160ff021916908360ff1602179055508160ff16600a62000151919062000d9b565b816200015e919062000dec565b6008819055506200017833600854620001a060201b60201c565b5050505062000fbb565b600033905090565b6200019c82826200030e60201b60201c565b5050565b600073ffffffffffffffffffffffffffffffffffffffff168273ffffffffffffffffffffffffffffffffffffffff160362000212576040517f08c379a0000000000000000000000000000000000000000000000000000000008152600401620002099062000e98565b60405180910390fd5b62000226600083836200035660201b60201c565b80600460008282546200023a919062000eba565b9250508190555080600260008473ffffffffffffffffffffffffffffffffffffffff1673ffffffffffffffffffffffffffffffffffffffff168152602001908152602001600020600082825401925050819055508173ffffffffffffffffffffffffffffffffffffffff16600073ffffffffffffffffffffffffffffffffffffffff167fddf252ad1be2c89b69c2b068fc378daa952ba7f163c4a11628f55a4df523b3ef83604051620002ee919062000f06565b60405180910390a36200030a600083836200037360201b60201c565b5050565b6200032582826200037860201b62000d431760201c565b6200035181600160008581526020019081526020016000206200046960201b62000e231790919060201c565b505050565b6200036e838383620004a160201b62000e531760201c565b505050565b505050565b6200038a82826200051160201b60201c565b6200046557600160008084815260200190815260200160002060000160008373ffffffffffffffffffffffffffffffffffffffff1673ffffffffffffffffffffffffffffffffffffffff16815260200190815260200160002060006101000a81548160ff0219169083151502179055506200040a6200018260201b60201c565b73ffffffffffffffffffffffffffffffffffffffff168173ffffffffffffffffffffffffffffffffffffffff16837f2f8788117e7eff1d82e926ec794901d17c78024a50270940304540a733656f0d60405160405180910390a45b5050565b600062000499836000018373ffffffffffffffffffffffffffffffffffffffff1660001b6200057b60201b60201c565b905092915050565b620004b9838383620005f560201b62000eab1760201c565b620004c9620005fa60201b60201c565b156200050c576040517f08c379a0000000000000000000000000000000000000000000000000000000008152600401620005039062000f99565b60405180910390fd5b505050565b600080600084815260200190815260200160002060000160008373ffffffffffffffffffffffffffffffffffffffff1673ffffffffffffffffffffffffffffffffffffffff16815260200190815260200160002060009054906101000a900460ff16905092915050565b60006200058f83836200061160201b60201c565b620005ea578260000182908060018154018082558091505060019003906000526020600020016000909190919091505582600001805490508360010160008481526020019081526020016000208190555060019050620005ef565b600090505b92915050565b505050565b6000600760009054906101000a900460ff16905090565b600080836001016000848152602001908152602001600020541415905092915050565b6000604051905090565b600080fd5b600080fd5b600080fd5b600080fd5b6000601f19601f8301169050919050565b7f4e487b7100000000000000000000000000000000000000000000000000000000600052604160045260246000fd5b6200069d8262000652565b810181811067ffffffffffffffff82111715620006bf57620006be62000663565b5b80604052505050565b6000620006d462000634565b9050620006e2828262000692565b919050565b600067ffffffffffffffff82111562000705576200070462000663565b5b620007108262000652565b9050602081019050919050565b60005b838110156200073d57808201518184015260208101905062000720565b60008484015250505050565b6000620007606200075a84620006e7565b620006c8565b9050828152602081018484840111156200077f576200077e6200064d565b5b6200078c8482856200071d565b509392505050565b600082601f830112620007ac57620007ab62000648565b5b8151620007be84826020860162000749565b91505092915050565b600060ff82169050919050565b620007df81620007c7565b8114620007eb57600080fd5b50565b600081519050620007ff81620007d4565b92915050565b6000819050919050565b6200081a8162000805565b81146200082657600080fd5b50565b6000815190506200083a816200080f565b92915050565b600080600080608085870312156200085d576200085c6200063e565b5b600085015167ffffffffffffffff8111156200087e576200087d62000643565b5b6200088c8782880162000794565b945050602085015167ffffffffffffffff811115620008b057620008af62000643565b5b620008be8782880162000794565b9350506040620008d187828801620007ee565b9250506060620008e48782880162000829565b91505092959194509250565b600081519050919050565b7f4e487b7100000000000000000000000000000000000000000000000000000000600052602260045260246000fd5b600060028204905060018216806200094357607f821691505b602082108103620009595762000958620008fb565b5b50919050565b60008190508160005260206000209050919050565b60006020601f8301049050919050565b600082821b905092915050565b600060088302620009c37fffffffffffffffffffffffffffffffffffffffffffffffffffffffffffffffff8262000984565b620009cf868362000984565b95508019841693508086168417925050509392505050565b6000819050919050565b600062000a1262000a0c62000a068462000805565b620009e7565b62000805565b9050919050565b6000819050919050565b62000a2e83620009f1565b62000a4662000a3d8262000a19565b84845462000991565b825550505050565b600090565b62000a5d62000a4e565b62000a6a81848462000a23565b505050565b5b8181101562000a925762000a8660008262000a53565b60018101905062000a70565b5050565b601f82111562000ae15762000aab816200095f565b62000ab68462000974565b8101602085101562000ac6578190505b62000ade62000ad58562000974565b83018262000a6f565b50505b505050565b600082821c905092915050565b600062000b066000198460080262000ae6565b1980831691505092915050565b600062000b21838362000af3565b9150826002028217905092915050565b62000b3c82620008f0565b67ffffffffffffffff81111562000b585762000b5762000663565b5b62000b6482546200092a565b62000b7182828562000a96565b600060209050601f83116001811462000ba9576000841562000b94578287015190505b62000ba0858262000b13565b86555062000c10565b601f19841662000bb9866200095f565b60005b8281101562000be35784890151825560018201915060208501945060208101905062000bbc565b8683101562000c03578489015162000bff601f89168262000af3565b8355505b6001600288020188555050505b505050505050565b7f4e487b7100000000000000000000000000000000000000000000000000000000600052601160045260246000fd5b60008160011c9050919050565b6000808291508390505b600185111562000ca65780860481111562000c7e5762000c7d62000c18565b5b600185161562000c8e5780820291505b808102905062000c9e8562000c47565b945062000c5e565b94509492505050565b60008262000cc1576001905062000d94565b8162000cd1576000905062000d94565b816001811462000cea576002811462000cf55762000d2b565b600191505062000d94565b60ff84111562000d0a5762000d0962000c18565b5b8360020a91508482111562000d245762000d2362000c18565b5b5062000d94565b5060208310610133831016604e8410600b841016171562000d655782820a90508381111562000d5f5762000d5e62000c18565b5b62000d94565b62000d74848484600162000c54565b9250905081840481111562000d8e5762000d8d62000c18565b5b81810290505b9392505050565b600062000da88262000805565b915062000db58362000805565b925062000de47fffffffffffffffffffffffffffffffffffffffffffffffffffffffffffffffff848462000caf565b905092915050565b600062000df98262000805565b915062000e068362000805565b925082820262000e168162000805565b9150828204841483151762000e305762000e2f62000c18565b5b5092915050565b600082825260208201905092915050565b7f45524332303a206d696e7420746f20746865207a65726f206164647265737300600082015250565b600062000e80601f8362000e37565b915062000e8d8262000e48565b602082019050919050565b6000602082019050818103600083015262000eb38162000e71565b9050919050565b600062000ec78262000805565b915062000ed48362000805565b925082820190508082111562000eef5762000eee62000c18565b5b92915050565b62000f008162000805565b82525050565b600060208201905062000f1d600083018462000ef5565b92915050565b7f45524332305061757361626c653a20746f6b656e207472616e7366657220776860008201527f696c652070617573656400000000000000000000000000000000000000000000602082015250565b600062000f81602a8362000e37565b915062000f8e8262000f23565b604082019050919050565b6000602082019050818103600083015262000fb48162000f72565b9050919050565b61310f8062000fcb6000396000f3fe608060405234801561001057600080fd5b50600436106101cf5760003560e01c80635c975abb11610104578063a217fddf116100a2578063d539139311610071578063d539139314610556578063d547741f14610574578063dd62ed3e14610590578063e63ab1e9146105c0576101cf565b8063a217fddf146104a8578063a457c2d7146104c6578063a9059cbb146104f6578063ca15c87314610526576101cf565b80638456cb59116100de5780638456cb59146104205780639010d07c1461042a57806391d148541461045a57806395d89b411461048a576101cf565b80635c975abb146103b657806370a08231146103d457806379cc679014610404576101cf565b80632ff2e9dc11610171578063395093511161014b57806339509351146103445780633f4ba83a1461037457806340c10f191461037e57806342966c681461039a576101cf565b80632ff2e9dc146102ec578063313ce5671461030a57806336568abe14610328576101cf565b806318160ddd116101ad57806318160ddd1461025257806323b872dd14610270578063248a9ca3146102a05780632f2ff15d146102d0576101cf565b806301ffc9a7146101d457806306fdde0314610204578063095ea7b314610222575b600080fd5b6101ee60048036038101906101e99190611fe8565b6105de565b6040516101fb9190612030565b60405180910390f35b61020c610658565b60405161021991906120db565b60405180910390f35b61023c60048036038101906102379190612191565b6106ea565b6040516102499190612030565b60405180910390f35b61025a61070d565b60405161026791906121e0565b60405180910390f35b61028a600480360381019061028591906121fb565b610717565b6040516102979190612030565b60405180910390f35b6102ba60048036038101906102b59190612284565b610746565b6040516102c791906122c0565b60405180910390f35b6102ea60048036038101906102e591906122db565b610765565b005b6102f4610786565b60405161030191906121e0565b60405180910390f35b61031261078c565b60405161031f9190612337565b60405180910390f35b610342600480360381019061033d91906122db565b6107a3565b005b61035e60048036038101906103599190612191565b610826565b60405161036b9190612030565b60405180910390f35b61037c61085d565b005b61039860048036038101906103939190612191565b6108d7565b005b6103b460048036038101906103af9190612352565b610955565b005b6103be610969565b6040516103cb9190612030565b60405180910390f35b6103ee60048036038101906103e9919061237f565b610980565b6040516103fb91906121e0565b60405180910390f35b61041e60048036038101906104199190612191565b6109c9565b005b6104286109e9565b005b610444600480360381019061043f91906123ac565b610a63565b60405161045191906123fb565b60405180910390f35b610474600480360381019061046f91906122db565b610a92565b6040516104819190612030565b60405180910390f35b610492610afc565b60405161049f91906120db565b60405180910390f35b6104b0610b8e565b6040516104bd91906122c0565b60405180910390f35b6104e060048036038101906104db9190612191565b610b95565b6040516104ed9190612030565b60405180910390f35b610510600480360381019061050b9190612191565b610c0c565b60405161051d9190612030565b60405180910390f35b610540600480360381019061053b9190612284565b610c2f565b60405161054d91906121e0565b60405180910390f35b61055e610c53565b60405161056b91906122c0565b60405180910390f35b61058e600480360381019061058991906122db565b610c77565b005b6105aa60048036038101906105a59190612416565b610c98565b6040516105b791906121e0565b60405180910390f35b6105c8610d1f565b6040516105d591906122c0565b60405180910390f35b60007f5a05180f000000000000000000000000000000000000000000000000000000007bffffffffffffffffffffffffffffffffffffffffffffffffffffffff1916827bffffffffffffffffffffffffffffffffffffffffffffffffffffffff19161480610651575061065082610eb0565b5b9050919050565b60606005805461066790612485565b80601f016020809104026020016040519081016040528092919081815260200182805461069390612485565b80156106e05780601f106106b5576101008083540402835291602001916106e0565b820191906000526020600020905b8154815290600101906020018083116106c357829003601f168201915b5050505050905090565b6000806106f5610f2a565b9050610702818585610f32565b600191505092915050565b6000600454905090565b600080610722610f2a565b905061072f8582856110fb565b61073a858585611187565b60019150509392505050565b6000806000838152602001908152602001600020600101549050919050565b61076e82610746565b61077781611400565b6107818383611414565b505050565b60085481565b6000600760019054906101000a900460ff16905090565b6107ab610f2a565b73ffffffffffffffffffffffffffffffffffffffff168173ffffffffffffffffffffffffffffffffffffffff1614610818576040517f08c379a000000000000000000000000000000000000000000000000000000000815260040161080f90612528565b60405180910390fd5b6108228282611448565b5050565b600080610831610f2a565b90506108528185856108438589610c98565b61084d9190612577565b610f32565b600191505092915050565b61088e7f65d7a28e3265b37a6474929f336521b332c1681b933f6cb9f3376673440d862a610889610f2a565b610a92565b6108cd576040517f08c379a00000000000000000000000000000000000000000000000000000000081526004016108c49061261d565b60405180910390fd5b6108d561147c565b565b6109087f9f2df0fed2c77648de5860a4cc508cd0818c85b8b8a1ab4ceeef8d981c8956a6610903610f2a565b610a92565b610947576040517f08c379a000000000000000000000000000000000000000000000000000000000815260040161093e906126af565b60405180910390fd5b61095182826114df565b5050565b610966610960610f2a565b82611636565b50565b6000600760009054906101000a900460ff16905090565b6000600260008373ffffffffffffffffffffffffffffffffffffffff1673ffffffffffffffffffffffffffffffffffffffff168152602001908152602001600020549050919050565b6109db826109d5610f2a565b836110fb565b6109e58282611636565b5050565b610a1a7f65d7a28e3265b37a6474929f336521b332c1681b933f6cb9f3376673440d862a610a15610f2a565b610a92565b610a59576040517f08c379a0000000000000000000000000000000000000000000000000000000008152600401610a5090612741565b60405180910390fd5b610a61611805565b565b6000610a8a826001600086815260200190815260200160002061186890919063ffffffff16565b905092915050565b600080600084815260200190815260200160002060000160008373ffffffffffffffffffffffffffffffffffffffff1673ffffffffffffffffffffffffffffffffffffffff16815260200190815260200160002060009054906101000a900460ff16905092915050565b606060068054610b0b90612485565b80601f0160208091040260200160405190810160405280929190818152602001828054610b3790612485565b8015610b845780601f10610b5957610100808354040283529160200191610b84565b820191906000526020600020905b815481529060010190602001808311610b6757829003601f168201915b5050505050905090565b6000801b81565b600080610ba0610f2a565b90506000610bae8286610c98565b905083811015610bf3576040517f08c379a0000000000000000000000000000000000000000000000000000000008152600401610bea906127d3565b60405180910390fd5b610c008286868403610f32565b60019250505092915050565b600080610c17610f2a565b9050610c24818585611187565b600191505092915050565b6000610c4c60016000848152602001908152602001600020611882565b9050919050565b7f9f2df0fed2c77648de5860a4cc508cd0818c85b8b8a1ab4ceeef8d981c8956a681565b610c8082610746565b610c8981611400565b610c938383611448565b505050565b6000600360008473ffffffffffffffffffffffffffffffffffffffff1673ffffffffffffffffffffffffffffffffffffffff16815260200190815260200160002060008373ffffffffffffffffffffffffffffffffffffffff1673ffffffffffffffffffffffffffffffffffffffff16815260200190815260200160002054905092915050565b7f65d7a28e3265b37a6474929f336521b332c1681b933f6cb9f3376673440d862a81565b610d4d8282610a92565b610e1f57600160008084815260200190815260200160002060000160008373ffffffffffffffffffffffffffffffffffffffff1673ffffffffffffffffffffffffffffffffffffffff16815260200190815260200160002060006101000a81548160ff021916908315150217905550610dc4610f2a565b73ffffffffffffffffffffffffffffffffffffffff168173ffffffffffffffffffffffffffffffffffffffff16837f2f8788117e7eff1d82e926ec794901d17c78024a50270940304540a733656f0d60405160405180910390a45b5050565b6000610e4b836000018373ffffffffffffffffffffffffffffffffffffffff1660001b611897565b905092915050565b610e5e838383610eab565b610e66610969565b15610ea6576040517f08c379a0000000000000000000000000000000000000000000000000000000008152600401610e9d90612865565b60405180910390fd5b505050565b505050565b60007f7965db0b000000000000000000000000000000000000000000000000000000007bffffffffffffffffffffffffffffffffffffffffffffffffffffffff1916827bffffffffffffffffffffffffffffffffffffffffffffffffffffffff19161480610f235750610f2282611907565b5b9050919050565b600033905090565b600073ffffffffffffffffffffffffffffffffffffffff168373ffffffffffffffffffffffffffffffffffffffff1603610fa1576040517f08c379a0000000000000000000000000000000000000000000000000000000008152600401610f98906128f7565b60405180910390fd5b600073ffffffffffffffffffffffffffffffffffffffff168273ffffffffffffffffffffffffffffffffffffffff1603611010576040517f08c379a000000000000000000000000000000000000000000000000000000000815260040161100790612989565b60405180910390fd5b80600360008573ffffffffffffffffffffffffffffffffffffffff1673ffffffffffffffffffffffffffffffffffffffff16815260200190815260200160002060008473ffffffffffffffffffffffffffffffffffffffff1673ffffffffffffffffffffffffffffffffffffffff168152602001908152602001600020819055508173ffffffffffffffffffffffffffffffffffffffff168373ffffffffffffffffffffffffffffffffffffffff167f8c5be1e5ebec7d5bd14f71427d1e84f3dd0314c0f7b2291e5b200ac8c7c3b925836040516110ee91906121e0565b60405180910390a3505050565b60006111078484610c98565b90507fffffffffffffffffffffffffffffffffffffffffffffffffffffffffffffffff81146111815781811015611173576040517f08c379a000000000000000000000000000000000000000000000000000000000815260040161116a906129f5565b60405180910390fd5b6111808484848403610f32565b5b50505050565b600073ffffffffffffffffffffffffffffffffffffffff168373ffffffffffffffffffffffffffffffffffffffff16036111f6576040517f08c379a00000000000000000000000000000000000000000000000000000000081526004016111ed90612a87565b60405180910390fd5b600073ffffffffffffffffffffffffffffffffffffffff168273ffffffffffffffffffffffffffffffffffffffff1603611265576040517f08c379a000000000000000000000000000000000000000000000000000000000815260040161125c90612b19565b60405180910390fd5b611270838383611971565b6000600260008573ffffffffffffffffffffffffffffffffffffffff1673ffffffffffffffffffffffffffffffffffffffff168152602001908152602001600020549050818110156112f7576040517f08c379a00000000000000000000000000000000000000000000000000000000081526004016112ee90612bab565b60405180910390fd5b818103600260008673ffffffffffffffffffffffffffffffffffffffff1673ffffffffffffffffffffffffffffffffffffffff1681526020019081526020016000208190555081600260008573ffffffffffffffffffffffffffffffffffffffff1673ffffffffffffffffffffffffffffffffffffffff168152602001908152602001600020600082825401925050819055508273ffffffffffffffffffffffffffffffffffffffff168473ffffffffffffffffffffffffffffffffffffffff167fddf252ad1be2c89b69c2b068fc378daa952ba7f163c4a11628f55a4df523b3ef846040516113e791906121e0565b60405180910390a36113fa848484611981565b50505050565b6114118161140c610f2a565b611986565b50565b61141e8282610d43565b6114438160016000858152602001908152602001600020610e2390919063ffffffff16565b505050565b6114528282611a0b565b6114778160016000858152602001908152602001600020611aec90919063ffffffff16565b505050565b611484611b1c565b6000600760006101000a81548160ff0219169083151502179055507f5db9ee0a495bf2e6ff9c91a7834c1ba4fdd244a5e8aa4e537bd38aeae4b073aa6114c8610f2a565b6040516114d591906123fb565b60405180910390a1565b600073ffffffffffffffffffffffffffffffffffffffff168273ffffffffffffffffffffffffffffffffffffffff160361154e576040517f08c379a000000000000000000000000000000000000000000000000000000000815260040161154590612c17565b60405180910390fd5b61155a60008383611971565b806004600082825461156c9190612577565b9250508190555080600260008473ffffffffffffffffffffffffffffffffffffffff1673ffffffffffffffffffffffffffffffffffffffff168152602001908152602001600020600082825401925050819055508173ffffffffffffffffffffffffffffffffffffffff16600073ffffffffffffffffffffffffffffffffffffffff167fddf252ad1be2c89b69c2b068fc378daa952ba7f163c4a11628f55a4df523b3ef8360405161161e91906121e0565b60405180910390a361163260008383611981565b5050565b600073ffffffffffffffffffffffffffffffffffffffff168273ffffffffffffffffffffffffffffffffffffffff16036116a5576040517f08c379a000000000000000000000000000000000000000000000000000000000815260040161169c90612ca9565b60405180910390fd5b6116b182600083611971565b6000600260008473ffffffffffffffffffffffffffffffffffffffff1673ffffffffffffffffffffffffffffffffffffffff16815260200190815260200160002054905081811015611738576040517f08c379a000000000000000000000000000000000000000000000000000000000815260040161172f90612d3b565b60405180910390fd5b818103600260008573ffffffffffffffffffffffffffffffffffffffff1673ffffffffffffffffffffffffffffffffffffffff1681526020019081526020016000208190555081600460008282540392505081905550600073ffffffffffffffffffffffffffffffffffffffff168373ffffffffffffffffffffffffffffffffffffffff167fddf252ad1be2c89b69c2b068fc378daa952ba7f163c4a11628f55a4df523b3ef846040516117ec91906121e0565b60405180910390a361180083600084611981565b505050565b61180d611b65565b6001600760006101000a81548160ff0219169083151502179055507f62e78cea01bee320cd4e420270b5ea74000d11b0c9f74754ebdbfc544b05a258611851610f2a565b60405161185e91906123fb565b60405180910390a1565b60006118778360000183611baf565b60001c905092915050565b600061189082600001611bda565b9050919050565b60006118a38383611beb565b6118fc578260000182908060018154018082558091505060019003906000526020600020016000909190919091505582600001805490508360010160008481526020019081526020016000208190555060019050611901565b600090505b92915050565b60007f01ffc9a7000000000000000000000000000000000000000000000000000000007bffffffffffffffffffffffffffffffffffffffffffffffffffffffff1916827bffffffffffffffffffffffffffffffffffffffffffffffffffffffff1916149050919050565b61197c838383610e53565b505050565b505050565b6119908282610a92565b611a075761199d81611c0e565b6119ab8360001c6020611c3b565b6040516020016119bc929190612e2f565b6040516020818303038152906040526040517f08c379a00000000000000000000000000000000000000000000000000000000081526004016119fe91906120db565b60405180910390fd5b5050565b611a158282610a92565b15611ae857600080600084815260200190815260200160002060000160008373ffffffffffffffffffffffffffffffffffffffff1673ffffffffffffffffffffffffffffffffffffffff16815260200190815260200160002060006101000a81548160ff021916908315150217905550611a8d610f2a565b73ffffffffffffffffffffffffffffffffffffffff168173ffffffffffffffffffffffffffffffffffffffff16837ff6391f5c32d9c69d2a47ea670b442974b53935d1edc7fd64eb21e047a839171b60405160405180910390a45b5050565b6000611b14836000018373ffffffffffffffffffffffffffffffffffffffff1660001b611e77565b905092915050565b611b24610969565b611b63576040517f08c379a0000000000000000000000000000000000000000000000000000000008152600401611b5a90612eb5565b60405180910390fd5b565b611b6d610969565b15611bad576040517f08c379a0000000000000000000000000000000000000000000000000000000008152600401611ba490612f21565b60405180910390fd5b565b6000826000018281548110611bc757611bc6612f41565b5b9060005260206000200154905092915050565b600081600001805490509050919050565b600080836001016000848152602001908152602001600020541415905092915050565b6060611c348273ffffffffffffffffffffffffffffffffffffffff16601460ff16611c3b565b9050919050565b606060006002836002611c4e9190612f70565b611c589190612577565b67ffffffffffffffff811115611c7157611c70612fb2565b5b6040519080825280601f01601f191660200182016040528015611ca35781602001600182028036833780820191505090505b5090507f300000000000000000000000000000000000000000000000000000000000000081600081518110611cdb57611cda612f41565b5b60200101907effffffffffffffffffffffffffffffffffffffffffffffffffffffffffffff1916908160001a9053507f780000000000000000000000000000000000000000000000000000000000000081600181518110611d3f57611d3e612f41565b5b60200101907effffffffffffffffffffffffffffffffffffffffffffffffffffffffffffff1916908160001a90535060006001846002611d7f9190612f70565b611d899190612577565b90505b6001811115611e29577f3031323334353637383961626364656600000000000000000000000000000000600f861660108110611dcb57611dca612f41565b5b1a60f81b828281518110611de257611de1612f41565b5b60200101907effffffffffffffffffffffffffffffffffffffffffffffffffffffffffffff1916908160001a905350600485901c945080611e2290612fe1565b9050611d8c565b5060008414611e6d576040517f08c379a0000000000000000000000000000000000000000000000000000000008152600401611e6490613056565b60405180910390fd5b8091505092915050565b60008083600101600084815260200190815260200160002054905060008114611f7f576000600182611ea99190613076565b9050600060018660000180549050611ec19190613076565b9050818114611f30576000866000018281548110611ee257611ee1612f41565b5b9060005260206000200154905080876000018481548110611f0657611f05612f41565b5b90600052602060002001819055508387600101600083815260200190815260200160002081905550505b85600001805480611f4457611f436130aa565b5b600190038181906000526020600020016000905590558560010160008681526020019081526020016000206000905560019350505050611f85565b60009150505b92915050565b600080fd5b60007fffffffff0000000000000000000000000000000000000000000000000000000082169050919050565b611fc581611f90565b8114611fd057600080fd5b50565b600081359050611fe281611fbc565b92915050565b600060208284031215611ffe57611ffd611f8b565b5b600061200c84828501611fd3565b91505092915050565b60008115159050919050565b61202a81612015565b82525050565b60006020820190506120456000830184612021565b92915050565b600081519050919050565b600082825260208201905092915050565b60005b8381101561208557808201518184015260208101905061206a565b60008484015250505050565b6000601f19601f8301169050919050565b60006120ad8261204b565b6120b78185612056565b93506120c7818560208601612067565b6120d081612091565b840191505092915050565b600060208201905081810360008301526120f581846120a2565b905092915050565b600073ffffffffffffffffffffffffffffffffffffffff82169050919050565b6000612128826120fd565b9050919050565b6121388161211d565b811461214357600080fd5b50565b6000813590506121558161212f565b92915050565b6000819050919050565b61216e8161215b565b811461217957600080fd5b50565b60008135905061218b81612165565b92915050565b600080604083850312156121a8576121a7611f8b565b5b60006121b685828601612146565b92505060206121c78582860161217c565b9150509250929050565b6121da8161215b565b82525050565b60006020820190506121f560008301846121d1565b92915050565b60008060006060848603121561221457612213611f8b565b5b600061222286828701612146565b935050602061223386828701612146565b92505060406122448682870161217c565b9150509250925092565b6000819050919050565b6122618161224e565b811461226c57600080fd5b50565b60008135905061227e81612258565b92915050565b60006020828403121561229a57612299611f8b565b5b60006122a88482850161226f565b91505092915050565b6122ba8161224e565b82525050565b60006020820190506122d560008301846122b1565b92915050565b600080604083850312156122f2576122f1611f8b565b5b60006123008582860161226f565b925050602061231185828601612146565b9150509250929050565b600060ff82169050919050565b6123318161231b565b82525050565b600060208201905061234c6000830184612328565b92915050565b60006020828403121561236857612367611f8b565b5b60006123768482850161217c565b91505092915050565b60006020828403121561239557612394611f8b565b5b60006123a384828501612146565b91505092915050565b600080604083850312156123c3576123c2611f8b565b5b60006123d18582860161226f565b92505060206123e28582860161217c565b9150509250929050565b6123f58161211d565b82525050565b600060208201905061241060008301846123ec565b92915050565b6000806040838503121561242d5761242c611f8b565b5b600061243b85828601612146565b925050602061244c85828601612146565b9150509250929050565b7f4e487b7100000000000000000000000000000000000000000000000000000000600052602260045260246000fd5b6000600282049050600182168061249d57607f821691505b6020821081036124b0576124af612456565b5b50919050565b7f416363657373436f6e74726f6c3a2063616e206f6e6c792072656e6f756e636560008201527f20726f6c657320666f722073656c660000000000000000000000000000000000602082015250565b6000612512602f83612056565b915061251d826124b6565b604082019050919050565b6000602082019050818103600083015261254181612505565b9050919050565b7f4e487b7100000000000000000000000000000000000000000000000000000000600052601160045260246000fd5b60006125828261215b565b915061258d8361215b565b92508282019050808211156125a5576125a4612548565b5b92915050565b7f45524332305072657365744d696e7465725061757365723a206d75737420686160008201527f76652070617573657220726f6c6520746f20756e706175736500000000000000602082015250565b6000612607603983612056565b9150612612826125ab565b604082019050919050565b60006020820190508181036000830152612636816125fa565b9050919050565b7f45524332305072657365744d696e7465725061757365723a206d75737420686160008201527f7665206d696e74657220726f6c6520746f206d696e7400000000000000000000602082015250565b6000612699603683612056565b91506126a48261263d565b604082019050919050565b600060208201905081810360008301526126c88161268c565b9050919050565b7f45524332305072657365744d696e7465725061757365723a206d75737420686160008201527f76652070617573657220726f6c6520746f207061757365000000000000000000602082015250565b600061272b603783612056565b9150612736826126cf565b604082019050919050565b6000602082019050818103600083015261275a8161271e565b9050919050565b7f45524332303a2064656372656173656420616c6c6f77616e63652062656c6f7760008201527f207a65726f000000000000000000000000000000000000000000000000000000602082015250565b60006127bd602583612056565b91506127c882612761565b604082019050919050565b600060208201905081810360008301526127ec816127b0565b9050919050565b7f45524332305061757361626c653a20746f6b656e207472616e7366657220776860008201527f696c652070617573656400000000000000000000000000000000000000000000602082015250565b600061284f602a83612056565b915061285a826127f3565b604082019050919050565b6000602082019050818103600083015261287e81612842565b9050919050565b7f45524332303a20617070726f76652066726f6d20746865207a65726f2061646460008201527f7265737300000000000000000000000000000000000000000000000000000000602082015250565b60006128e1602483612056565b91506128ec82612885565b604082019050919050565b60006020820190508181036000830152612910816128d4565b9050919050565b7f45524332303a20617070726f766520746f20746865207a65726f20616464726560008201527f7373000000000000000000000000000000000000000000000000000000000000602082015250565b6000612973602283612056565b915061297e82612917565b604082019050919050565b600060208201905081810360008301526129a281612966565b9050919050565b7f45524332303a20696e73756666696369656e7420616c6c6f77616e6365000000600082015250565b60006129df601d83612056565b91506129ea826129a9565b602082019050919050565b60006020820190508181036000830152612a0e816129d2565b9050919050565b7f45524332303a207472616e736665722066726f6d20746865207a65726f20616460008201527f6472657373000000000000000000000000000000000000000000000000000000602082015250565b6000612a71602583612056565b9150612a7c82612a15565b604082019050919050565b60006020820190508181036000830152612aa081612a64565b9050919050565b7f45524332303a207472616e7366657220746f20746865207a65726f206164647260008201527f6573730000000000000000000000000000000000000000000000000000000000602082015250565b6000612b03602383612056565b9150612b0e82612aa7565b604082019050919050565b60006020820190508181036000830152612b3281612af6565b9050919050565b7f45524332303a207472616e7366657220616d6f756e742065786365656473206260008201527f616c616e63650000000000000000000000000000000000000000000000000000602082015250565b6000612b95602683612056565b9150612ba082612b39565b604082019050919050565b60006020820190508181036000830152612bc481612b88565b9050919050565b7f45524332303a206d696e7420746f20746865207a65726f206164647265737300600082015250565b6000612c01601f83612056565b9150612c0c82612bcb565b602082019050919050565b60006020820190508181036000830152612c3081612bf4565b9050919050565b7f45524332303a206275726e2066726f6d20746865207a65726f2061646472657360008201527f7300000000000000000000000000000000000000000000000000000000000000602082015250565b6000612c93602183612056565b9150612c9e82612c37565b604082019050919050565b60006020820190508181036000830152612cc281612c86565b9050919050565b7f45524332303a206275726e20616d6f756e7420657863656564732062616c616e60008201527f6365000000000000000000000000000000000000000000000000000000000000602082015250565b6000612d25602283612056565b9150612d3082612cc9565b604082019050919050565b60006020820190508181036000830152612d5481612d18565b9050919050565b600081905092915050565b7f416363657373436f6e74726f6c3a206163636f756e7420000000000000000000600082015250565b6000612d9c601783612d5b565b9150612da782612d66565b601782019050919050565b6000612dbd8261204b565b612dc78185612d5b565b9350612dd7818560208601612067565b80840191505092915050565b7f206973206d697373696e6720726f6c6520000000000000000000000000000000600082015250565b6000612e19601183612d5b565b9150612e2482612de3565b601182019050919050565b6000612e3a82612d8f565b9150612e468285612db2565b9150612e5182612e0c565b9150612e5d8284612db2565b91508190509392505050565b7f5061757361626c653a206e6f7420706175736564000000000000000000000000600082015250565b6000612e9f601483612056565b9150612eaa82612e69565b602082019050919050565b60006020820190508181036000830152612ece81612e92565b9050919050565b7f5061757361626c653a2070617573656400000000000000000000000000000000600082015250565b6000612f0b601083612056565b9150612f1682612ed5565b602082019050919050565b60006020820190508181036000830152612f3a81612efe565b9050919050565b7f4e487b7100000000000000000000000000000000000000000000000000000000600052603260045260246000fd5b6000612f7b8261215b565b9150612f868361215b565b9250828202612f948161215b565b91508282048414831517612fab57612faa612548565b5b5092915050565b7f4e487b7100000000000000000000000000000000000000000000000000000000600052604160045260246000fd5b6000612fec8261215b565b915060008203612fff57612ffe612548565b5b600182039050919050565b7f537472696e67733a20686578206c656e67746820696e73756666696369656e74600082015250565b6000613040602083612056565b915061304b8261300a565b602082019050919050565b6000602082019050818103600083015261306f81613033565b9050919050565b60006130818261215b565b915061308c8361215b565b92508282039050818111156130a4576130a3612548565b5b92915050565b7f4e487b7100000000000000000000000000000000000000000000000000000000600052603160045260246000fdfea264697066735822122021f8300d1bd8d5f180d68be0370e4b5037228ec7ece84956c7bb377e3282d84a64736f6c63430008120033",
  "linkReferences": {},
  "deployedLinkReferences": {}
}