{
  "_format": "hh-sol-artifact-1",
  "contractName": "SimpleToken",
  "sourceName": "contracts/SimpleToken.sol",
  "abi": [
    {
      "inputs": [
        {
          "internalType": "string",
          "name": "name",
          "type": "string"
        },
        {
          "internalType": "string",
          "name": "symbol",
          "type": "string"
        },
        {
          "internalType": "uint8",
          "name": "decimals_",
          "type": "uint8"
        },
        {
          "internalType": "uint256",
          "name": "initial_supply",
          "type": "uint256"
        }
      ],
      "stateMutability": "nonpayable",
      "type": "constructor"
    },
    {
      "inputs": [
        {
          "internalType": "address",
          "name": "spender",
          "type": "address"
        },
        {
          "internalType": "uint256",
          "name": "allowance",
          "type": "uint256"
        },
        {
          "internalType": "uint256",
          "name": "needed",
          "type": "uint256"
        }
      ],
      "name": "ERC20InsufficientAllowance",
      "type": "error"
    },
    {
      "inputs": [
        {
          "internalType": "address",
          "name": "sender",
          "type": "address"
        },
        {
          "internalType": "uint256",
          "name": "balance",
          "type": "uint256"
        },
        {
          "internalType": "uint256",
          "name": "needed",
          "type": "uint256"
        }
      ],
      "name": "ERC20InsufficientBalance",
      "type": "error"
    },
    {
      "inputs": [
        {
          "internalType": "address",
          "name": "approver",
          "type": "address"
        }
      ],
      "name": "ERC20InvalidApprover",
      "type": "error"
    },
    {
      "inputs": [
        {
          "internalType": "address",
          "name": "receiver",
          "type": "address"
        }
      ],
      "name": "ERC20InvalidReceiver",
      "type": "error"
    },
    {
      "inputs": [
        {
          "internalType": "address",
          "name": "sender",
          "type": "address"
        }
      ],
      "name": "ERC20InvalidSender",
      "type": "error"
    },
    {
      "inputs": [
        {
          "internalType": "address",
          "name": "spender",
          "type": "address"
        }
      ],
      "name": "ERC20InvalidSpender",
      "type": "error"
    },
    {
      "anonymous": false,
      "inputs": [
        {
          "indexed": true,
          "internalType": "address",
          "name": "owner",
          "type": "address"
        },
        {
          "indexed": true,
          "internalType": "address",
          "name": "spender",
          "type": "address"
        },
        {
          "indexed": false,
          "internalType": "uint256",
          "name": "value",
          "type": "uint256"
        }
      ],
      "name": "Approval",
      "type": "event"
    },
    {
      "anonymous": false,
      "inputs": [
        {
          "indexed": true,
          "internalType": "address",
          "name": "from",
          "type": "address"
        },
        {
          "indexed": true,
          "internalType": "address",
          "name": "to",
          "type": "address"
        },
        {
          "indexed": false,
          "internalType": "uint256",
          "name": "value",
          "type": "uint256"
        }
      ],
      "name": "Transfer",
      "type": "event"
    },
    {
      "inputs": [],
      "name": "INITIAL_SUPPLY",
      "outputs": [
        {
          "internalType": "uint256",
          "name": "",
          "type": "uint256"
        }
      ],
      "stateMutability": "view",
      "type": "function"
    },
    {
      "inputs": [
        {
          "internalType": "address",
          "name": "owner",
          "type": "address"
        },
        {
          "internalType": "address",
          "name": "spender",
          "type": "address"
        }
      ],
      "name": "allowance",
      "outputs": [
        {
          "internalType": "uint256",
          "name": "",
          "type": "uint256"
        }
      ],
      "stateMutability": "view",
      "type": "function"
    },
    {
      "inputs": [
        {
          "internalType": "address",
          "name": "spender",
          "type": "address"
        },
        {
          "internalType": "uint256",
          "name": "value",
          "type": "uint256"
        }
      ],
      "name": "approve",
      "outputs": [
        {
          "internalType": "bool",
          "name": "",
          "type": "bool"
        }
      ],
      "stateMutability": "nonpayable",
      "type": "function"
    },
    {
      "inputs": [
        {
          "internalType": "address",
          "name": "account",
          "type": "address"
        }
      ],
      "name": "balanceOf",
      "outputs": [
        {
          "internalType": "uint256",
          "name": "",
          "type": "uint256"
        }
      ],
      "stateMutability": "view",
      "type": "function"
    },
    {
      "inputs": [],
      "name": "decimals",
      "outputs": [
        {
          "internalType": "uint8",
          "name": "",
          "type": "uint8"
        }
      ],
      "stateMutability": "view",
      "type": "function"
    },
    {
      "inputs": [],
      "name": "name",
      "outputs": [
        {
          "internalType": "string",
          "name": "",
          "type": "string"
        }
      ],
      "stateMutability": "view",
      "type": "function"
    },
    {
      "inputs": [],
      "name": "symbol",
      "outputs": [
        {
          "internalType": "string",
          "name": "",
          "type": "string"
        }
      ],
      "stateMutability": "view",
      "type": "function"
    },
    {
      "inputs": [],
      "name": "totalSupply",
      "outputs": [
        {
          "internalType": "uint256",
          "name": "",
          "type": "uint256"
        }
      ],
      "stateMutability": "view",
      "type": "function"
    },
    {
      "inputs": [
        {
          "internalType": "address",
          "name": "to",
          "type": "address"
        },
        {
          "internalType": "uint256",
          "name": "value",
          "type": "uint256"
        }
      ],
      "name": "transfer",
      "outputs": [
        {
          "internalType": "bool",
          "name": "",
          "type": "bool"
        }
      ],
      "stateMutability": "nonpayable",
      "type": "function"
    },
    {
      "inputs": [
        {
          "internalType": "address",
          "name": "from",
          "type": "address"
        },
        {
          "internalType": "address",
          "name": "to",
          "type": "address"
        },
        {
          "internalType": "uint256",
          "name": "value",
          "type": "uint256"
        }
      ],
      "name": "transferFrom",
      "outputs": [
        {
          "internalType": "bool",
          "name": "",
          "type": "bool"
        }
      ],
      "stateMutability": "nonpayable",
      "type": "function"
    }
  ],
  "bytecode": "0x60806040523480156200001157600080fd5b5060405162001b2738038062001b27833981810160405281019062000037919062000586565b838381600390816200004a919062000877565b5080600490816200005c919062000877565b50505081600560006101000a81548160ff021916908360ff1602179055508160ff16600a6200008c919062000ae1565b8162000099919062000b32565b600681905550620000b333600654620000bd60201b60201c565b5050505062000c85565b600073ffffffffffffffffffffffffffffffffffffffff168273ffffffffffffffffffffffffffffffffffffffff1603620001325760006040517fec442f0500000000000000000000000000000000000000000000000000000000815260040162000129919062000bc2565b60405180910390fd5b62000146600083836200014a60201b60201c565b5050565b600073ffffffffffffffffffffffffffffffffffffffff168373ffffffffffffffffffffffffffffffffffffffff1603620001a057806002600082825462000193919062000bdf565b9250508190555062000276565b60008060008573ffffffffffffffffffffffffffffffffffffffff1673ffffffffffffffffffffffffffffffffffffffff168152602001908152602001600020549050818110156200022f578381836040517fe450d38c000000000000000000000000000000000000000000000000000000008152600401620002269392919062000c2b565b60405180910390fd5b8181036000808673ffffffffffffffffffffffffffffffffffffffff1673ffffffffffffffffffffffffffffffffffffffff16815260200190815260200160002081905550505b600073ffffffffffffffffffffffffffffffffffffffff168273ffffffffffffffffffffffffffffffffffffffff1603620002c157806002600082825403925050819055506200030e565b806000808473ffffffffffffffffffffffffffffffffffffffff1673ffffffffffffffffffffffffffffffffffffffff168152602001908152602001600020600082825401925050819055505b8173ffffffffffffffffffffffffffffffffffffffff168373ffffffffffffffffffffffffffffffffffffffff167fddf252ad1be2c89b69c2b068fc378daa952ba7f163c4a11628f55a4df523b3ef836040516200036d919062000c68565b60405180910390a3505050565b6000604051905090565b600080fd5b600080fd5b600080fd5b600080fd5b6000601f19601f8301169050919050565b7f4e487b7100000000000000000000000000000000000000000000000000000000600052604160045260246000fd5b620003e38262000398565b810181811067ffffffffffffffff82111715620004055762000404620003a9565b5b80604052505050565b60006200041a6200037a565b9050620004288282620003d8565b919050565b600067ffffffffffffffff8211156200044b576200044a620003a9565b5b620004568262000398565b9050602081019050919050565b60005b838110156200048357808201518184015260208101905062000466565b60008484015250505050565b6000620004a6620004a0846200042d565b6200040e565b905082815260208101848484011115620004c557620004c462000393565b5b620004d284828562000463565b509392505050565b600082601f830112620004f257620004f16200038e565b5b8151620005048482602086016200048f565b91505092915050565b600060ff82169050919050565b62000525816200050d565b81146200053157600080fd5b50565b60008151905062000545816200051a565b92915050565b6000819050919050565b62000560816200054b565b81146200056c57600080fd5b50565b600081519050620005808162000555565b92915050565b60008060008060808587031215620005a357620005a262000384565b5b600085015167ffffffffffffffff811115620005c457620005c362000389565b5b620005d287828801620004da565b945050602085015167ffffffffffffffff811115620005f657620005f562000389565b5b6200060487828801620004da565b9350506040620006178782880162000534565b92505060606200062a878288016200056f565b91505092959194509250565b600081519050919050565b7f4e487b7100000000000000000000000000000000000000000000000000000000600052602260045260246000fd5b600060028204905060018216806200068957607f821691505b6020821081036200069f576200069e62000641565b5b50919050565b60008190508160005260206000209050919050565b60006020601f8301049050919050565b600082821b905092915050565b600060088302620007097fffffffffffffffffffffffffffffffffffffffffffffffffffffffffffffffff82620006ca565b620007158683620006ca565b95508019841693508086168417925050509392505050565b6000819050919050565b600062000758620007526200074c846200054b565b6200072d565b6200054b565b9050919050565b6000819050919050565b620007748362000737565b6200078c62000783826200075f565b848454620006d7565b825550505050565b600090565b620007a362000794565b620007b081848462000769565b505050565b5b81811015620007d857620007cc60008262000799565b600181019050620007b6565b5050565b601f8211156200082757620007f181620006a5565b620007fc84620006ba565b810160208510156200080c578190505b620008246200081b85620006ba565b830182620007b5565b50505b505050565b600082821c905092915050565b60006200084c600019846008026200082c565b1980831691505092915050565b600062000867838362000839565b9150826002028217905092915050565b620008828262000636565b67ffffffffffffffff8111156200089e576200089d620003a9565b5b620008aa825462000670565b620008b7828285620007dc565b600060209050601f831160018114620008ef5760008415620008da578287015190505b620008e6858262000859565b86555062000956565b601f198416620008ff86620006a5565b60005b82811015620009295784890151825560018201915060208501945060208101905062000902565b8683101562000949578489015162000945601f89168262000839565b8355505b6001600288020188555050505b505050505050565b7f4e487b7100000000000000000000000000000000000000000000000000000000600052601160045260246000fd5b60008160011c9050919050565b6000808291508390505b6001851115620009ec57808604811115620009c457620009c36200095e565b5b6001851615620009d45780820291505b8081029050620009e4856200098d565b9450620009a4565b94509492505050565b60008262000a07576001905062000ada565b8162000a17576000905062000ada565b816001811462000a30576002811462000a3b5762000a71565b600191505062000ada565b60ff84111562000a505762000a4f6200095e565b5b8360020a91508482111562000a6a5762000a696200095e565b5b5062000ada565b5060208310610133831016604e8410600b841016171562000aab5782820a90508381111562000aa55762000aa46200095e565b5b62000ada565b62000aba84848460016200099a565b9250905081840481111562000ad45762000ad36200095e565b5b81810290505b9392505050565b600062000aee826200054b565b915062000afb836200054b565b925062000b2a7fffffffffffffffffffffffffffffffffffffffffffffffffffffffffffffffff8484620009f5565b905092915050565b600062000b3f826200054b565b915062000b4c836200054b565b925082820262000b5c816200054b565b9150828204841483151762000b765762000b756200095e565b5b5092915050565b600073ffffffffffffffffffffffffffffffffffffffff82169050919050565b600062000baa8262000b7d565b9050919050565b62000bbc8162000b9d565b82525050565b600060208201905062000bd9600083018462000bb1565b92915050565b600062000bec826200054b565b915062000bf9836200054b565b925082820190508082111562000c145762000c136200095e565b5b92915050565b62000c25816200054b565b82525050565b600060608201905062000c42600083018662000bb1565b62000c51602083018562000c1a565b62000c60604083018462000c1a565b949350505050565b600060208201905062000c7f600083018462000c1a565b92915050565b610e928062000c956000396000f3fe608060405234801561001057600080fd5b506004361061009e5760003560e01c8063313ce56711610066578063313ce5671461015d57806370a082311461017b57806395d89b41146101ab578063a9059cbb146101c9578063dd62ed3e146101f95761009e565b806306fdde03146100a3578063095ea7b3146100c157806318160ddd146100f157806323b872dd1461010f5780632ff2e9dc1461013f575b600080fd5b6100ab610229565b6040516100b89190610ae6565b60405180910390f35b6100db60048036038101906100d69190610ba1565b6102bb565b6040516100e89190610bfc565b60405180910390f35b6100f96102de565b6040516101069190610c26565b60405180910390f35b61012960048036038101906101249190610c41565b6102e8565b6040516101369190610bfc565b60405180910390f35b610147610317565b6040516101549190610c26565b60405180910390f35b61016561031d565b6040516101729190610cb0565b60405180910390f35b61019560048036038101906101909190610ccb565b610334565b6040516101a29190610c26565b60405180910390f35b6101b361037c565b6040516101c09190610ae6565b60405180910390f35b6101e360048036038101906101de9190610ba1565b61040e565b6040516101f09190610bfc565b60405180910390f35b610213600480360381019061020e9190610cf8565b610431565b6040516102209190610c26565b60405180910390f35b60606003805461023890610d67565b80601f016020809104026020016040519081016040528092919081815260200182805461026490610d67565b80156102b15780601f10610286576101008083540402835291602001916102b1565b820191906000526020600020905b81548152906001019060200180831161029457829003601f168201915b5050505050905090565b6000806102c66104b8565b90506102d38185856104c0565b600191505092915050565b6000600254905090565b6000806102f36104b8565b90506103008582856104d2565b61030b858585610566565b60019150509392505050565b60065481565b6000600560009054906101000a900460ff16905090565b60008060008373ffffffffffffffffffffffffffffffffffffffff1673ffffffffffffffffffffffffffffffffffffffff168152602001908152602001600020549050919050565b60606004805461038b90610d67565b80601f01602080910402602001604051908101604052809291908181526020018280546103b790610d67565b80156104045780601f106103d957610100808354040283529160200191610404565b820191906000526020600020905b8154815290600101906020018083116103e757829003601f168201915b5050505050905090565b6000806104196104b8565b9050610426818585610566565b600191505092915050565b6000600160008473ffffffffffffffffffffffffffffffffffffffff1673ffffffffffffffffffffffffffffffffffffffff16815260200190815260200160002060008373ffffffffffffffffffffffffffffffffffffffff1673ffffffffffffffffffffffffffffffffffffffff16815260200190815260200160002054905092915050565b600033905090565b6104cd838383600161065a565b505050565b60006104de8484610431565b90507fffffffffffffffffffffffffffffffffffffffffffffffffffffffffffffffff81146105605781811015610550578281836040517ffb8f41b200000000000000000000000000000000000000000000000000000000815260040161054793929190610da7565b60405180910390fd5b61055f8484848403600061065a565b5b50505050565b600073ffffffffffffffffffffffffffffffffffffffff168373ffffffffffffffffffffffffffffffffffffffff16036105d85760006040517f96c6fd1e0000000000000000000000000000000000000000000000000000000081526004016105cf9190610dde565b60405180910390fd5b600073ffffffffffffffffffffffffffffffffffffffff168273ffffffffffffffffffffffffffffffffffffffff160361064a5760006040517fec442f050000000000000000000000000000000000000000000000000000000081526004016106419190610dde565b60405180910390fd5b610655838383610831565b505050565b600073ffffffffffffffffffffffffffffffffffffffff168473ffffffffffffffffffffffffffffffffffffffff16036106cc5760006040517fe602df050000000000000000000000000000000000000000000000000000000081526004016106c39190610dde565b60405180910390fd5b600073ffffffffffffffffffffffffffffffffffffffff168373ffffffffffffffffffffffffffffffffffffffff160361073e5760006040517f94280d620000000000000000000000000000000000000000000000000000000081526004016107359190610dde565b60405180910390fd5b81600160008673ffffffffffffffffffffffffffffffffffffffff1673ffffffffffffffffffffffffffffffffffffffff16815260200190815260200160002060008573ffffffffffffffffffffffffffffffffffffffff1673ffffffffffffffffffffffffffffffffffffffff16815260200190815260200160002081905550801561082b578273ffffffffffffffffffffffffffffffffffffffff168473ffffffffffffffffffffffffffffffffffffffff167f8c5be1e5ebec7d5bd14f71427d1e84f3dd0314c0f7b2291e5b200ac8c7c3b925846040516108229190610c26565b60405180910390a35b50505050565b600073ffffffffffffffffffffffffffffffffffffffff168373ffffffffffffffffffffffffffffffffffffffff16036108835780600260008282546108779190610e28565b92505081905550610956565b60008060008573ffffffffffffffffffffffffffffffffffffffff1673ffffffffffffffffffffffffffffffffffffffff1681526020019081526020016000205490508181101561090f578381836040517fe450d38c00000000000000000000000000000000000000000000000000000000815260040161090693929190610da7565b60405180910390fd5b8181036000808673ffffffffffffffffffffffffffffffffffffffff1673ffffffffffffffffffffffffffffffffffffffff16815260200190815260200160002081905550505b600073ffffffffffffffffffffffffffffffffffffffff168273ffffffffffffffffffffffffffffffffffffffff160361099f57806002600082825403925050819055506109ec565b806000808473ffffffffffffffffffffffffffffffffffffffff1673ffffffffffffffffffffffffffffffffffffffff168152602001908152602001600020600082825401925050819055505b8173ffffffffffffffffffffffffffffffffffffffff168373ffffffffffffffffffffffffffffffffffffffff167fddf252ad1be2c89b69c2b068fc378daa952ba7f163c4a11628f55a4df523b3ef83604051610a499190610c26565b60405180910390a3505050565b600081519050919050565b600082825260208201905092915050565b60005b83811015610a90578082015181840152602081019050610a75565b60008484015250505050565b6000601f19601f8301169050919050565b6000610ab882610a56565b610ac28185610a61565b9350610ad2818560208601610a72565b610adb81610a9c565b840191505092915050565b60006020820190508181036000830152610b008184610aad565b905092915050565b600080fd5b600073ffffffffffffffffffffffffffffffffffffffff82169050919050565b6000610b3882610b0d565b9050919050565b610b4881610b2d565b8114610b5357600080fd5b50565b600081359050610b6581610b3f565b92915050565b6000819050919050565b610b7e81610b6b565b8114610b8957600080fd5b50565b600081359050610b9b81610b75565b92915050565b60008060408385031215610bb857610bb7610b08565b5b6000610bc685828601610b56565b9250506020610bd785828601610b8c565b9150509250929050565b60008115159050919050565b610bf681610be1565b82525050565b6000602082019050610c116000830184610bed565b92915050565b610c2081610b6b565b82525050565b6000602082019050610c3b6000830184610c17565b92915050565b600080600060608486031215610c5a57610c59610b08565b5b6000610c6886828701610b56565b9350506020610c7986828701610b56565b9250506040610c8a86828701610b8c565b9150509250925092565b600060ff82169050919050565b610caa81610c94565b82525050565b6000602082019050610cc56000830184610ca1565b92915050565b600060208284031215610ce157610ce0610b08565b5b6000610cef84828501610b56565b91505092915050565b60008060408385031215610d0f57610d0e610b08565b5b6000610d1d85828601610b56565b9250506020610d2e85828601610b56565b9150509250929050565b7f4e487b7100000000000000000000000000000000000000000000000000000000600052602260045260246000fd5b60006002820490506001821680610d7f57607f821691505b602082108103610d9257610d91610d38565b5b50919050565b610da181610b2d565b82525050565b6000606082019050610dbc6000830186610d98565b610dc96020830185610c17565b610dd66040830184610c17565b949350505050565b6000602082019050610df36000830184610d98565b92915050565b7f4e487b7100000000000000000000000000000000000000000000000000000000600052601160045260246000fd5b6000610e3382610b6b565b9150610e3e83610b6b565b9250828201905080821115610e5657610e55610df9565b5b9291505056fea2646970667358221220845d665c6dae0df3980b8590f5ccbc27006a2845883b55dd477f343e893c9ccb64736f6c63430008180033",
  "linkReferences": {},
  "deployedLinkReferences": {}
}